{
  "contractName": "DappToken",
  "abi": [
    {
      "inputs": [],
      "payable": false,
      "stateMutability": "nonpayable",
      "type": "constructor"
    },
    {
      "constant": true,
      "inputs": [],
      "name": "totalSupply",
      "outputs": [
        {
          "internalType": "uint256",
          "name": "",
          "type": "uint256"
        }
      ],
      "payable": false,
      "stateMutability": "view",
      "type": "function"
    }
  ],
  "bytecode": "0x6080604052348015600f57600080fd5b50620f42406000556080806100256000396000f3fe6080604052348015600f57600080fd5b506004361060285760003560e01c806318160ddd14602d575b600080fd5b60336045565b60408051918252519081900360200190f35b6000548156fea265627a7a72315820a99f4d17e530633564449b83835b392876baaee3373408377ba192a8e553241764736f6c634300050c0032",
  "source": "pragma solidity ^0.5.11;\n\ncontract DappToken{\n    //Constructor\n    //Set the total number of tokens\n    //Read the total number of tokens\n    uint256 public totalSupply;\n    constructor () public{\n        totalSupply = 1000000;\n        \n    }\n}\n",
  "sourcePath": "/Users/pwchan/Desktop/token_sale/contracts/DappToken.sol",
  "compiler": {
    "name": "solc",
    "version": "0.5.12+commit.7709ece9.Emscripten.clang"
  },
  "schemaVersion": "3.0.19",
  "updatedAt": "2019-12-22T18:00:25.587Z",
  "networkType": "ethereum",
  "devdoc": {
    "methods": {}
  },
  "userdoc": {
    "methods": {}
  }
}